:020000040800F2
:1000000010040020A9010008570B0008B90A0008D5
:10001000550B0008B5020008010C000800000000A4
:100020000000000000000000000000005B0B000862
:10003000B702000800000000590B00085D0B000823
:10004000C3010008C3010008C3010008C301000880
:10005000C3010008C3010008C3010008C301000870
:10006000C3010008C3010008C3010008C301000860
:10007000C3010008C3010008C3010008C301000850
:10008000C3010008C3010008C3010008000000000C
:10009000000000000000000000000000C301000894
:1000A000C3010008C3010008C3010008C301000820
:1000B000C3010008C3010008C3010008C301000810
:1000C000C3010008C3010008C3010008C301000800
:1000D000C3010008C3010008C301000800000000BC
:1000E000C3010008C3010008C301000800000000AC
:1000F000000000000000000000000000C301000834
:1001000000000000C3010008C3010008C30100088B
:1001100000000000000000000000000000000000DF
:10012000C3010008C3010008C3010008C30100089F
:10013000C3010008000000000000000000000000F3
:10014000000000000000000000000000C3010008E3
:10015000C3010008C3010008C3010008C30100086F
:10016000C3010008C30100080000000000000000F7
:10017000000000000000000000000000000000007F
:1001800000000000C30100080000000000000000A3
:10019000C3010008DFF80CD000F07AF800480047EF
:1001A000410C00081004002006488047064800471C
:1001B000FEE7FEE7FEE7FEE7FEE7FEE7FEE7FEE717
:1001C000FEE7FEE7E50B0008950100082DE9F05F6A
:1001D0000546002092469B468846064681464024B6
:1001E0001BE0284641464746224600F041F8534668
:1001F0005A46C01A914110D311461846224600F0C3
:1002000028F82D1A67EB01084F46224601200021ED
:1002100000F01FF817EB00094E41201EA4F1010465
:10022000DFDC484631462A464346BDE8F09FD2B25D
:1002300001E000F8012B491EFBD270470022F6E7CF
:1002400010B513460A4604461946FFF7F0FF20464C
:1002500010BD202A04DB203A00FA02F1002070478A
:100260009140C2F1200320FA03F3194390407047F4
:10027000202A04DB203A21FA02F00021704721FAFB
:1002800002F3D040C2F12002914008431946704762
:10029000064C074D06E0E06840F0010394E80700D3
:1002A00098471034AC42F6D3FFF778FF841100086A
:1002B000A4110008FEE7704770B5044600F0DEF8B0
:1002C0000546601C02D004480078044400F0D6F8CB
:1002D000401BA042FAD370BD000000202DE9F84F6A
:1002E00000224FF0010803254FF00F0E0B6808FAAB
:1002F00002F42340A34271D14E68012E05D0022E94
:1003000003D0112E01D0122E15D18668570005FAA0
:1003100007FC26EA0C06D1F80CC00CFA07FC4CEAE4
:10032000060CC0F808C04668A6430C79C4F3001454
:10033000944034434460C668570005FA07FC8C6853
:1003400026EA0C06BC403443C4604C68022C01D041
:10035000122C13D1D40800EB8404A346D4F82090C7
:1003600054074FEAD46A0EFA0AF629EA06090E691A
:1003700006FA0AF646EA0906CBF8206004680E7908
:1003800024EA0C0406F00306BE40264306604C68CF
:10039000E40056D52E4C266846F480462660246834
:1003A00022F0030604F4804400942A4C3444A4460A
:1003B000D4F808489607370F0EFA07F6B443264ECE
:1003C000B04201D1002615E0244EB04201D10126F1
:1003D00010E0234EB04202D102260BE031E0214E64
:1003E000B04201D1032605E01F4EB04201D10426E0
:1003F00000E00726BE402643CCF808681B4E346850
:100400004F689C43FF0300D51C433460174E361DD4
:1004100034684F689C43BF0300D51C433460134EBF
:10042000083634684F689C43FF0200D51C43346093
:100430000E4E0C3634684F689C43BF0200D51C43F7
:100440003460521C102AFFF451AFBDE8F88F000051
:1004500044380240003001400000024000040240E5
:1004600000080240000C024000100240003C014025
:100470000AB1816170470904FBE700000148806808
:100480007047000000000020024881680278114493
:1004900081607047000000200B4810B5016841F4EE
:1004A00000710160016841F480610160016841F4FC
:1004B00080710160032000F061F8002000F006F870
:1004C00000F024F8002010BD003C024070B50D4D36
:1004D00004464FF47A712878B1FBF0F00A490968B4
:1004E000B1FBF0F000F0D4FA48B9102C07D200228A
:1004F0002146501E00F022F800206C6070BD0120E3
:1005000070BD0000000000200C0000200A4808B563
:10051000016841F480410160006800F4804000906F
:100520000548001F016841F080510160006800F03B
:100530008050009008BD000044380240F0B40E4BDB
:100540001B680C46C3F30223C3F10705042D00D931
:100550000425191D072901D2002300E0DB1E012616
:1005600006FA05F1491E214099409E40761E16402C
:100570003143F0BC00F045BB0CED00E0064900F053
:10058000070208684FF6FF03184040EA0220034ABA
:1005900010430860704700000CED00E00000FA0511
:1005A0002DE9F0470E46050065D0DFF81481D8F834
:1005B0000000F7B200F00F00B04207D288F80070D8
:1005C000D8F8000000F00F00B04254D128683D4C2C
:1005D000810712D5400703D5206840F4E050206021
:1005E0002878000703D5206840F460402060206828
:1005F000A96820F0F000084320602878C0072DD0BB
:10060000304968680839012812D0022813D003281D
:1006100011D00968890700292DDA216821F003012A
:1006200001432160FFF72AFF814641F2883A0EE03C
:1006300009688903EFE709688901ECE7FFF71EFF06
:10064000A0EB0901514502D90320BDE8F0872068DD
:10065000696800F00C00B0EB810FEFD1D8F8001002
:10066000404601F00F01B14207D90770006800F061
:100670000F00B04201D00120E7E72878400705D5F8
:100680002068E96820F4E0500843206028780007DB
:1006900006D52068296920F4604040EAC100206046
:1006A00000F018F82168084AC1F30311515CC840F2
:1006B0000649086006480068FFF708FF0020C4E705
:1006C000003C024008380240741100080C00002071
:1006D00004000020154810B5006810F00C02144802
:1006E00013D04110042A0FD0082A0ED10F4C241F1A
:1006F0002268236802F03F025B0207D52068C0F33E
:100700008810A0FB010106E0084610BD2168C1F376
:100710008811A1FB00010023FFF758FD2168C1F3F8
:100720000141491C4900B0FBF1F010BD08380240FE
:100730000024F4002DE9F84F04006ED02078DFF893
:100740003C93C007A9F104054AD009F104000168EF
:10075000C1F38101012908D00068C0F3810002289B
:100760000AD1D9F80000400206D52868800337D5A1
:1007700060680028E1D033E06068B0F5803F10D0B9
:10078000B0F5A02F286810D020F4803028602868A9
:1007900020F4802028606068A8B1FFF76FFE06464D
:1007A0000DE0286840F48030F4E740F480202860B1
:1007B000F7E700BFFFF762FE801B642873D8286844
:1007C0008003F7D50CE0FFF759FE064605E000BFB1
:1007D000FFF754FE801B6428F0D828688003F7D404
:1007E0002078DFF89C8280074FF0000A3ED5A348AE
:1007F000001D016811F00C0F08D00068C0F38100E3
:1008000002280BD1D9F80000400207D428688007DD
:1008100016D5E068012800D112E02BE1E068B8B1FC
:100820000120C8F80000FFF729FE064605E000BFDA
:10083000FFF724FE801B0228C0D828688007F7D560
:100840002868216920F0F80040EAC10028600DE026
:10085000C8F800A0FFF712FE064604E0FFF70EFE00
:10086000801B02281FD828688007F7D4207800074B
:1008700022D5824E83486169703671B101210160D1
:10088000FFF7FCFD074604E0FFF7F8FDC01B022858
:1008900009D830688007F7D50EE0C0F800A0FFF750
:1008A000EDFD074605E082E0FFF7E8FDC01B0228EA
:1008B0007DD830688007F7D42078400768D5DFF806
:1008C000BCB100270BF13C0BDBF80000C0000BD4DF
:1008D000DBF8001041F08051CBF80010DBF800008D
:1008E000012700F080500090674E3068C00510D49A
:1008F000306840F480703060FFF7C0FD009005E084
:10090000FFF7BCFD0099401A022850D83068C00596
:10091000F6D55A4EA0686C3601280FD005283068ED
:1009200010D020F001003060306820F0040030600A
:10093000A068B8B1FFF7A2FD00900FE0306840F06A
:100940000100F4E740F004003060F7E7FFF796FDA0
:100950000099411A41F28830814266D83068800798
:10096000F4D50EE0FFF78AFD009007E0FFF786FD63
:100970000099411A41F28830814256D83068800788
:10098000F4D42FB1DBF8001021F08051CBF8001027
:10099000A069C8B33949091D0968C1F38101022959
:1009A0004AD00228504607D0C8F8600000E03CE07A
:1009B000FFF764FD04463BE04746C8F86000FFF7D8
:1009C0005DFD064605E000BFFFF758FD801B0228CD
:1009D0002BD828688001F7D4D4E907010843A16A1D
:1009E0002A4A490802EB0141626A41EA821108433E
:1009F00094F82C1040EA0161C9F800100120386613
:100A0000FFF73CFD044606E036E000BFFFF736FD89
:100A1000001B022809D828688001F7D52CE000BF08
:100A2000FFF72CFD001B022802D90320BDE8F88F38
:100A300028688001F4D41FE00128F7D0D9F800001D
:100A4000E26900F48001914214D1226A00F03F0172
:100A500091420FD147F6C071626A0140914209D1BB
:100A6000A26A00F44031914204D1E16A00F0706062
:100A7000884201D00120D9E70020D7E7043802409E
:100A800000004742800E4742007000400000FFFF18
:100A900010B5401EB0F1807F01D3012010BD4FF092
:100AA000E02460610F21601700F0ABF80020A06126
:100AB00007202061002010BDFEE700002DE9F04373
:100AC00087B014216846FFF7B9FB1F48002501686D
:100AD00041F010010160016801F010010591016809
:100AE00041F080010160016801F080010591016819
:100AF00041F0080101600068DFF8508000F0080054
:100B00004FF6FF740590002221464046FFF7B0FCE7
:100B1000DFF83C90002221464846FFF7A9FC012659
:100B20000227CDE90046CDE9025769464046FFF766
:100B3000D5FBCDE90046CDE9025769464846FFF7A7
:100B4000CDFB07B0BDE8F083303802400010024012
:100B5000000C0240FEE7704770477047FFF794BCF7
:100B600030B593B030216846FFF768FB14210CA81C
:100B7000FFF764FB19480025016841F080510160CE
:100B8000006800F0805011901548016821F4404140
:100B900041F4004101600068022400F440401190DB
:100BA00001200090000401908001CDE9064008AAD0
:100BB0000420402182E813000B906846FFF7BAFD3D
:100BC0000F20CDE90C04A020CDE90E0500210CA8D2
:100BD0001095FFF7E5FC13B030BD0000403802402F
:100BE000007000400548016841F47001016003494C
:100BF0004FF00060803908607047000088ED00E029
:100C0000FEE70907090E002804DB00F1E02080F868
:100C10000014704700F00F0000F1E02080F8141D70
:100C2000704702E008C8121F08C1002AFAD17047B5
:100C30007047002001E001C1121F002AFBD170475C
:100C4000FFF72AFCFFF78CFFFFF738FF4FF47A74A9
:100C500000F024F92046FFF72FFB00F0D5F92046DD
:100C6000FFF72AFB00F002F8F2E700002DE9F05F41
:100C700000F0CAF9874C012211462046FFF7F8FB25
:100C80006420FFF719FB012202212046FFF7F0FB49
:100C90006420FFF711FB012204212046FFF7E8FB47
:100CA0006420FFF709FB012208212046FFF7E0FB43
:100CB0006420FFF701FB012210212046FFF7D8FB3B
:100CC0006420FFF7F9FA012220212046FFF7D0FB2C
:100CD0006420FFF7F1FA012240212046FFF7C8FB0C
:100CE0006420FFF7E9FA012280212046FFF7C0FBCC
:100CF0006420FFF7E1FA0122150229462046FFF79A
:100D0000B7FB6420FFF7D8FA01225602314620468D
:100D1000FFF7AEFB6420FFF7CFFA012297023946B6
:100D20002046FFF7A5FB6420FFF7C6FA4FF40068E2
:100D3000012241462046FFF79BFB6420FFF7BCFAE7
:100D40004FF48059012249462046FFF791FB642069
:100D5000FFF7B2FA4FF4005A012251462046FFF73E
:100D600087FB6420FFF7A8FA4FF4804B0122594615
:100D70002046FFF77DFB6420FFF79EFA0122D10396
:100D80002046FFF775FB6420FFF796FA424C0122DC
:100D900011462046FFF76CFB6420FFF78DFA012215
:100DA000D1032046FFF764FB6420FFF785FA012298
:100DB00059462046FFF75CFB6420FFF77DFA0122CD
:100DC00051462046FFF754FB6420FFF775FA0122D5
:100DD00049462046FFF74CFB6420FFF76DFA0122DD
:100DE00041462046FFF744FB6420FFF765FA0122E5
:100DF00039462046FFF73CFB6420FFF75DFA0122ED
:100E000031462046FFF734FB6420FFF755FA0122F4
:100E100029462046FFF72CFB6420FFF74DFA0122FC
:100E200080212046FFF724FB6420FFF745FA0122CA
:100E300040212046FFF71CFB6420FFF73DFA01220A
:100E400020212046FFF714FB6420FFF735FA01222A
:100E500010212046FFF70CFB6420FFF72DFA01223A
:100E600008212046FFF704FB6420FFF725FA012242
:100E700004212046FFF7FCFA6420FFF71DFA012247
:100E800002212046FFF7F4FABDE8F05F6420FFF787
:100E900013BA0000000C0240001002402DE9F05F80
:100EA000574C012211462046FFF7E2FA01220221A7
:100EB0002046FFF7DDFA012204212046FFF7D8FA89
:100EC000012208212046FFF7D3FA012210212046F3
:100ED000FFF7CEFA012220212046FFF7C9FA0122AE
:100EE00040212046FFF7C4FA012280212046FFF767
:100EF000BFFA0122150229462046FFF7B9FA01225E
:100F0000560231462046FFF7B3FA012297023946CE
:100F10002046FFF7ADFA4FF4006801224146204613
:100F2000FFF7A6FA4FF48059012249462046FFF701
:100F30009FFA4FF4005A012251462046FFF798FAD3
:100F40004FF4804B012259462046FFF791FA0122C7
:100F5000D1032046FFF78CFA2A4C01221146204685
:100F6000FFF786FA012202212046FFF781FA0122CB
:100F700004212046FFF77CFA012208212046FFF7D2
:100F800077FA012210212046FFF772FA0122202170
:100F90002046FFF76DFA012240212046FFF768FA4C
:100FA000012280212046FFF763FA012229462046CC
:100FB000FFF75EFA012231462046FFF759FA012277
:100FC00039462046FFF754FA012241462046FFF7F2
:100FD0004FFA012249462046FFF74AFA01225146BC
:100FE0002046FFF745FA012259462046FFF740FA0E
:100FF0002046BDE8F05F0122D103FFF739BA0000B7
:10100000000C0240001002402DE9F05F574C002216
:1010100001212046FFF72CFA002202212046FFF78B
:1010200027FA002204212046FFF722FA0022082195
:101030002046FFF71DFA002210212046FFF718FA7C
:10104000002220212046FFF713FA002240212046EB
:10105000FFF70EFA002280212046FFF709FAA515B6
:10106000002229462046FFF703FA66150022314682
:101070002046FFF7FDF92715002239462046FFF7E5
:10108000F7F94FF40068002241462046FFF7F0F9D7
:101090004FF48059002249462046FFF7E9F94FF402
:1010A000005A002251462046FFF7E2F94FF4804BE8
:1010B000002259462046FFF7DBF90022E9012046CD
:1010C000FFF7D6F92A4C002201212046FFF7D0F97C
:1010D000002202212046FFF7CBF9002204212046FE
:1010E000FFF7C6F9002208212046FFF7C1F90022C8
:1010F00010212046FFF7BCF9002220212046FFF7EF
:10110000B7F9002240212046FFF7B2F900228021E2
:101110002046FFF7ADF9002229462046FFF7A8F93F
:10112000002231462046FFF7A3F900223946204627
:10113000FFF79EF9002241462046FFF799F9002269
:1011400049462046FFF794F9002251462046FFF712
:101150008FF9002259462046FFF78AF90022E9015B
:101160002046BDE8F05FFFF783B90000000C0240A5
:101170000010024000000000000000000102030413
:1011800006070809A4110008000000201000000054
:10119000220C0008B4110008100000200004000018
:1011A000320C0008010000001000000000000000E8
:0411B0000024F40023
:040000050800019559
:00000001FF
